{
  "_format": "hh-sol-artifact-1",
  "contractName": "NFTMarketplace",
  "sourceName": "contracts/NFTMarketplace.sol",
  "abi": [
    {
      "inputs": [],
      "stateMutability": "nonpayable",
      "type": "constructor"
    },
    {
      "anonymous": false,
      "inputs": [
        {
          "indexed": true,
          "internalType": "address",
          "name": "account",
          "type": "address"
        },
        {
          "indexed": true,
          "internalType": "address",
          "name": "operator",
          "type": "address"
        },
        {
          "indexed": false,
          "internalType": "bool",
          "name": "approved",
          "type": "bool"
        }
      ],
      "name": "ApprovalForAll",
      "type": "event"
    },
    {
      "anonymous": false,
      "inputs": [
        {
          "indexed": true,
          "internalType": "uint256",
          "name": "tokenId",
          "type": "uint256"
        },
        {
          "indexed": false,
          "internalType": "address",
          "name": "owner",
          "type": "address"
        },
        {
          "indexed": false,
          "internalType": "address",
          "name": "seller",
          "type": "address"
        },
        {
          "indexed": false,
          "internalType": "uint256",
          "name": "price",
          "type": "uint256"
        },
        {
          "indexed": false,
          "internalType": "bool",
          "name": "currentlyListed",
          "type": "bool"
        }
      ],
      "name": "TokenListedSuccess",
      "type": "event"
    },
    {
      "anonymous": false,
      "inputs": [
        {
          "indexed": true,
          "internalType": "address",
          "name": "operator",
          "type": "address"
        },
        {
          "indexed": true,
          "internalType": "address",
          "name": "from",
          "type": "address"
        },
        {
          "indexed": true,
          "internalType": "address",
          "name": "to",
          "type": "address"
        },
        {
          "indexed": false,
          "internalType": "uint256[]",
          "name": "ids",
          "type": "uint256[]"
        },
        {
          "indexed": false,
          "internalType": "uint256[]",
          "name": "values",
          "type": "uint256[]"
        }
      ],
      "name": "TransferBatch",
      "type": "event"
    },
    {
      "anonymous": false,
      "inputs": [
        {
          "indexed": true,
          "internalType": "address",
          "name": "operator",
          "type": "address"
        },
        {
          "indexed": true,
          "internalType": "address",
          "name": "from",
          "type": "address"
        },
        {
          "indexed": true,
          "internalType": "address",
          "name": "to",
          "type": "address"
        },
        {
          "indexed": false,
          "internalType": "uint256",
          "name": "id",
          "type": "uint256"
        },
        {
          "indexed": false,
          "internalType": "uint256",
          "name": "value",
          "type": "uint256"
        }
      ],
      "name": "TransferSingle",
      "type": "event"
    },
    {
      "anonymous": false,
      "inputs": [
        {
          "indexed": false,
          "internalType": "string",
          "name": "value",
          "type": "string"
        },
        {
          "indexed": true,
          "internalType": "uint256",
          "name": "id",
          "type": "uint256"
        }
      ],
      "name": "URI",
      "type": "event"
    },
    {
      "inputs": [
        {
          "internalType": "address",
          "name": "account",
          "type": "address"
        },
        {
          "internalType": "uint256",
          "name": "id",
          "type": "uint256"
        }
      ],
      "name": "balanceOf",
      "outputs": [
        {
          "internalType": "uint256",
          "name": "",
          "type": "uint256"
        }
      ],
      "stateMutability": "view",
      "type": "function"
    },
    {
      "inputs": [
        {
          "internalType": "address[]",
          "name": "accounts",
          "type": "address[]"
        },
        {
          "internalType": "uint256[]",
          "name": "ids",
          "type": "uint256[]"
        }
      ],
      "name": "balanceOfBatch",
      "outputs": [
        {
          "internalType": "uint256[]",
          "name": "",
          "type": "uint256[]"
        }
      ],
      "stateMutability": "view",
      "type": "function"
    },
    {
      "inputs": [
        {
          "internalType": "string",
          "name": "tokenURI",
          "type": "string"
        },
        {
          "internalType": "uint256",
          "name": "price",
          "type": "uint256"
        }
      ],
      "name": "createToken",
      "outputs": [
        {
          "internalType": "uint256",
          "name": "",
          "type": "uint256"
        }
      ],
      "stateMutability": "payable",
      "type": "function"
    },
    {
      "inputs": [
        {
          "internalType": "uint256",
          "name": "tokenId",
          "type": "uint256"
        }
      ],
      "name": "executeSale",
      "outputs": [],
      "stateMutability": "payable",
      "type": "function"
    },
    {
      "inputs": [],
      "name": "getAllNFTs",
      "outputs": [
        {
          "components": [
            {
              "internalType": "uint256",
              "name": "tokenId",
              "type": "uint256"
            },
            {
              "internalType": "address payable",
              "name": "owner",
              "type": "address"
            },
            {
              "internalType": "address payable",
              "name": "seller",
              "type": "address"
            },
            {
              "internalType": "uint256",
              "name": "price",
              "type": "uint256"
            },
            {
              "internalType": "bool",
              "name": "currentlyListed",
              "type": "bool"
            }
          ],
          "internalType": "struct NFTMarketplace.ListedToken[]",
          "name": "",
          "type": "tuple[]"
        }
      ],
      "stateMutability": "view",
      "type": "function"
    },
    {
      "inputs": [],
      "name": "getCurrentToken",
      "outputs": [
        {
          "internalType": "uint256",
          "name": "",
          "type": "uint256"
        }
      ],
      "stateMutability": "view",
      "type": "function"
    },
    {
      "inputs": [],
      "name": "getLatestIdToListedToken",
      "outputs": [
        {
          "components": [
            {
              "internalType": "uint256",
              "name": "tokenId",
              "type": "uint256"
            },
            {
              "internalType": "address payable",
              "name": "owner",
              "type": "address"
            },
            {
              "internalType": "address payable",
              "name": "seller",
              "type": "address"
            },
            {
              "internalType": "uint256",
              "name": "price",
              "type": "uint256"
            },
            {
              "internalType": "bool",
              "name": "currentlyListed",
              "type": "bool"
            }
          ],
          "internalType": "struct NFTMarketplace.ListedToken",
          "name": "",
          "type": "tuple"
        }
      ],
      "stateMutability": "view",
      "type": "function"
    },
    {
      "inputs": [],
      "name": "getListPrice",
      "outputs": [
        {
          "internalType": "uint256",
          "name": "",
          "type": "uint256"
        }
      ],
      "stateMutability": "view",
      "type": "function"
    },
    {
      "inputs": [
        {
          "internalType": "uint256",
          "name": "tokenId",
          "type": "uint256"
        }
      ],
      "name": "getListedTokenForId",
      "outputs": [
        {
          "components": [
            {
              "internalType": "uint256",
              "name": "tokenId",
              "type": "uint256"
            },
            {
              "internalType": "address payable",
              "name": "owner",
              "type": "address"
            },
            {
              "internalType": "address payable",
              "name": "seller",
              "type": "address"
            },
            {
              "internalType": "uint256",
              "name": "price",
              "type": "uint256"
            },
            {
              "internalType": "bool",
              "name": "currentlyListed",
              "type": "bool"
            }
          ],
          "internalType": "struct NFTMarketplace.ListedToken",
          "name": "",
          "type": "tuple"
        }
      ],
      "stateMutability": "view",
      "type": "function"
    },
    {
      "inputs": [],
      "name": "getMyNFTs",
      "outputs": [
        {
          "components": [
            {
              "internalType": "uint256",
              "name": "tokenId",
              "type": "uint256"
            },
            {
              "internalType": "address payable",
              "name": "owner",
              "type": "address"
            },
            {
              "internalType": "address payable",
              "name": "seller",
              "type": "address"
            },
            {
              "internalType": "uint256",
              "name": "price",
              "type": "uint256"
            },
            {
              "internalType": "bool",
              "name": "currentlyListed",
              "type": "bool"
            }
          ],
          "internalType": "struct NFTMarketplace.ListedToken[]",
          "name": "",
          "type": "tuple[]"
        }
      ],
      "stateMutability": "view",
      "type": "function"
    },
    {
      "inputs": [
        {
          "internalType": "address",
          "name": "account",
          "type": "address"
        },
        {
          "internalType": "address",
          "name": "operator",
          "type": "address"
        }
      ],
      "name": "isApprovedForAll",
      "outputs": [
        {
          "internalType": "bool",
          "name": "",
          "type": "bool"
        }
      ],
      "stateMutability": "view",
      "type": "function"
    },
    {
      "inputs": [
        {
          "internalType": "address",
          "name": "",
          "type": "address"
        },
        {
          "internalType": "address",
          "name": "",
          "type": "address"
        },
        {
          "internalType": "uint256[]",
          "name": "",
          "type": "uint256[]"
        },
        {
          "internalType": "uint256[]",
          "name": "",
          "type": "uint256[]"
        },
        {
          "internalType": "bytes",
          "name": "",
          "type": "bytes"
        }
      ],
      "name": "onERC1155BatchReceived",
      "outputs": [
        {
          "internalType": "bytes4",
          "name": "",
          "type": "bytes4"
        }
      ],
      "stateMutability": "nonpayable",
      "type": "function"
    },
    {
      "inputs": [
        {
          "internalType": "address",
          "name": "",
          "type": "address"
        },
        {
          "internalType": "address",
          "name": "",
          "type": "address"
        },
        {
          "internalType": "uint256",
          "name": "",
          "type": "uint256"
        },
        {
          "internalType": "uint256",
          "name": "",
          "type": "uint256"
        },
        {
          "internalType": "bytes",
          "name": "",
          "type": "bytes"
        }
      ],
      "name": "onERC1155Received",
      "outputs": [
        {
          "internalType": "bytes4",
          "name": "",
          "type": "bytes4"
        }
      ],
      "stateMutability": "nonpayable",
      "type": "function"
    },
    {
      "inputs": [
        {
          "internalType": "address",
          "name": "",
          "type": "address"
        },
        {
          "internalType": "address",
          "name": "",
          "type": "address"
        },
        {
          "internalType": "uint256",
          "name": "",
          "type": "uint256"
        },
        {
          "internalType": "bytes",
          "name": "",
          "type": "bytes"
        }
      ],
      "name": "onERC721Received",
      "outputs": [
        {
          "internalType": "bytes4",
          "name": "",
          "type": "bytes4"
        }
      ],
      "stateMutability": "nonpayable",
      "type": "function"
    },
    {
      "inputs": [
        {
          "internalType": "address",
          "name": "from",
          "type": "address"
        },
        {
          "internalType": "address",
          "name": "to",
          "type": "address"
        },
        {
          "internalType": "uint256[]",
          "name": "ids",
          "type": "uint256[]"
        },
        {
          "internalType": "uint256[]",
          "name": "amounts",
          "type": "uint256[]"
        },
        {
          "internalType": "bytes",
          "name": "data",
          "type": "bytes"
        }
      ],
      "name": "safeBatchTransferFrom",
      "outputs": [],
      "stateMutability": "nonpayable",
      "type": "function"
    },
    {
      "inputs": [
        {
          "internalType": "address",
          "name": "from",
          "type": "address"
        },
        {
          "internalType": "address",
          "name": "to",
          "type": "address"
        },
        {
          "internalType": "uint256",
          "name": "id",
          "type": "uint256"
        },
        {
          "internalType": "uint256",
          "name": "amount",
          "type": "uint256"
        },
        {
          "internalType": "bytes",
          "name": "data",
          "type": "bytes"
        }
      ],
      "name": "safeTransferFrom",
      "outputs": [],
      "stateMutability": "nonpayable",
      "type": "function"
    },
    {
      "inputs": [
        {
          "internalType": "address",
          "name": "operator",
          "type": "address"
        },
        {
          "internalType": "bool",
          "name": "approved",
          "type": "bool"
        }
      ],
      "name": "setApprovalForAll",
      "outputs": [],
      "stateMutability": "nonpayable",
      "type": "function"
    },
    {
      "inputs": [
        {
          "internalType": "bytes4",
          "name": "interfaceId",
          "type": "bytes4"
        }
      ],
      "name": "supportsInterface",
      "outputs": [
        {
          "internalType": "bool",
          "name": "",
          "type": "bool"
        }
      ],
      "stateMutability": "view",
      "type": "function"
    },
    {
      "inputs": [
        {
          "internalType": "uint256",
          "name": "_listPrice",
          "type": "uint256"
        }
      ],
      "name": "updateListPrice",
      "outputs": [],
      "stateMutability": "payable",
      "type": "function"
    },
    {
      "inputs": [
        {
          "internalType": "uint256",
          "name": "",
          "type": "uint256"
        }
      ],
      "name": "uri",
      "outputs": [
        {
          "internalType": "string",
          "name": "",
          "type": "string"
        }
      ],
      "stateMutability": "view",
      "type": "function"
    }
  ],
  "bytecode": "0x6080604052662386f26fc100006006553480156200001c57600080fd5b5060408051808201909152600e81526d4e46544d61726b6574706c61636560901b60208201526200004d8162000066565b50600580546001600160a01b0319163317905562000162565b80516200007b9060029060208401906200007f565b5050565b8280546200008d9062000125565b90600052602060002090601f016020900481019282620000b15760008555620000fc565b82601f10620000cc57805160ff1916838001178555620000fc565b82800160010185558215620000fc579182015b82811115620000fc578251825591602001919060010190620000df565b506200010a9291506200010e565b5090565b5b808211156200010a57600081556001016200010f565b600181811c908216806200013a57607f821691505b602082108114156200015c57634e487b7160e01b600052602260045260246000fd5b50919050565b6121dd80620001726000396000f3fe60806040526004361061011e5760003560e01c80639b1225c4116100a0578063e0391b0911610064578063e0391b0914610344578063e985e9c514610359578063ef2d1746146103a2578063f23a6e61146103b7578063f242432a146103e357600080fd5b80639b1225c4146102bd578063a22cb465146102d0578063bc197c81146102f0578063c322579c1461031c578063d1a88ae51461032f57600080fd5b80634e1273f4116100e75780634e1273f414610219578063629cb2e41461024657806368f1945f1461026857806372b3b6201461027d5780638e2645901461029057600080fd5b8062fdd58e1461012357806301ffc9a7146101565780630e89341c14610186578063150b7a02146101b35780632eb2c2d6146101f7575b600080fd5b34801561012f57600080fd5b5061014361013e366004611b2a565b610403565b6040519081526020015b60405180910390f35b34801561016257600080fd5b50610176610171366004611c1e565b61049c565b604051901515815260200161014d565b34801561019257600080fd5b506101a66101a1366004611cac565b6104ec565b60405161014d9190611ebb565b3480156101bf57600080fd5b506101de6101ce366004611a27565b630a85bd0160e11b949350505050565b6040516001600160e01b0319909116815260200161014d565b34801561020357600080fd5b50610217610212366004611981565b610580565b005b34801561022557600080fd5b50610239610234366004611b53565b6105cc565b60405161014d9190611e7a565b34801561025257600080fd5b5061025b61072e565b60405161014d9190611e2c565b34801561027457600080fd5b50600654610143565b61014361028b366004611c56565b610971565b34801561029c57600080fd5b506102b06102ab366004611cac565b6109c4565b60405161014d9190611ff3565b6102176102cb366004611cac565b610a2e565b3480156102dc57600080fd5b506102176102eb366004611af0565b610ba4565b3480156102fc57600080fd5b506101de61030b366004611981565b63bc197c8160e01b95945050505050565b61021761032a366004611cac565b610bb3565b34801561033b57600080fd5b506102b0610c1e565b34801561035057600080fd5b5061025b610c95565b34801561036557600080fd5b5061017661037436600461194f565b6001600160a01b03918216600090815260016020908152604080832093909416825291909152205460ff1690565b3480156103ae57600080fd5b50610143610ddb565b3480156103c357600080fd5b506101de6103d2366004611a8d565b63f23a6e6160e01b95945050505050565b3480156103ef57600080fd5b506102176103fe366004611a8d565b610deb565b60006001600160a01b0383166104735760405162461bcd60e51b815260206004820152602a60248201527f455243313135353a2061646472657373207a65726f206973206e6f742061207660448201526930b634b21037bbb732b960b11b60648201526084015b60405180910390fd5b506000818152602081815260408083206001600160a01b03861684529091529020545b92915050565b60006001600160e01b03198216636cdb3d1360e11b14806104cd57506001600160e01b031982166303a24d0760e21b145b8061049657506301ffc9a760e01b6001600160e01b0319831614610496565b6060600280546104fb9061203d565b80601f01602080910402602001604051908101604052809291908181526020018280546105279061203d565b80156105745780601f1061054957610100808354040283529160200191610574565b820191906000526020600020905b81548152906001019060200180831161055757829003601f168201915b50505050509050919050565b6001600160a01b03851633148061059c575061059c8533610374565b6105b85760405162461bcd60e51b815260040161046a90611f16565b6105c58585858585610e30565b5050505050565b606081518351146106315760405162461bcd60e51b815260206004820152602960248201527f455243313135353a206163636f756e747320616e6420696473206c656e677468604482015268040dad2e6dac2e8c6d60bb1b606482015260840161046a565b6000835167ffffffffffffffff81111561065b57634e487b7160e01b600052604160045260246000fd5b604051908082528060200260200182016040528015610684578160200160208202803683370190505b50905060005b8451811015610726576106eb8582815181106106b657634e487b7160e01b600052603260045260246000fd5b60200260200101518583815181106106de57634e487b7160e01b600052603260045260246000fd5b6020026020010151610403565b82828151811061070b57634e487b7160e01b600052603260045260246000fd5b602090810291909101015261071f816120a5565b905061068a565b509392505050565b6060600061073b60035490565b905060008080805b848110156107d357336007600061075b846001612025565b81526020810191909152604001600020600101546001600160a01b031614806107ae5750336007600061078f846001612025565b81526020810191909152604001600020600201546001600160a01b0316145b156107c1576107be600185612025565b93505b806107cb816120a5565b915050610743565b5060008367ffffffffffffffff8111156107fd57634e487b7160e01b600052604160045260246000fd5b60405190808252806020026020018201604052801561083657816020015b61082361177b565b81526020019060019003908161081b5790505b50905060005b85811015610967573360076000610854846001612025565b81526020810191909152604001600020600101546001600160a01b031614806108a757503360076000610888846001612025565b81526020810191909152604001600020600201546001600160a01b0316145b15610955576108b7816001612025565b600081815260076020908152604091829020825160a0810184528154815260018201546001600160a01b039081169382019390935260028201549092169282019290925260038201546060820152600482015460ff16151560808201528451929550909184908790811061093b57634e487b7160e01b600052603260045260246000fd5b6020908102919091010152610951600186612025565b9450505b8061095f816120a5565b91505061083c565b5095945050505050565b6000610981600380546001019055565b600061098c60035490565b90506109aa3382600160405180602001604052806000815250611029565b6109b38461113d565b6109bd8184611150565b9392505050565b6109cc61177b565b50600090815260076020908152604091829020825160a0810184528154815260018201546001600160a01b03908116938201939093526002820154909216928201929092526003820154606082015260049091015460ff161515608082015290565b600081815260076020526040902060038101546002909101546001600160a01b0316348214610ac7576040805162461bcd60e51b81526020600482015260248101919091527f506c65617365207375626d6974207468652061736b696e67207072696365206960448201527f6e206f7264657220746f20636f6d706c65746520746865207075726368617365606482015260840161046a565b60008381526007602052604090206004808201805460ff19169055600290910180546001600160a01b03191633179055610b049080546001019055565b610b21303385600160405180602001604052806000815250610deb565b610b2c306001610ba4565b6005546006546040516001600160a01b039092169181156108fc0291906000818181858888f19350505050158015610b68573d6000803e3d6000fd5b506040516001600160a01b038216903480156108fc02916000818181858888f19350505050158015610b9e573d6000803e3d6000fd5b50505050565b610baf3383836112e2565b5050565b6005546001600160a01b03163314610c195760405162461bcd60e51b815260206004820152602360248201527f4f6e6c79206f776e65722063616e20757064617465206c697374696e6720707260448201526269636560e81b606482015260840161046a565b600655565b610c2661177b565b6000610c3160035490565b600090815260076020908152604091829020825160a0810184528154815260018201546001600160a01b03908116938201939093526002820154909216928201929092526003820154606082015260049091015460ff161515608082015292915050565b60606000610ca260035490565b905060008167ffffffffffffffff811115610ccd57634e487b7160e01b600052604160045260246000fd5b604051908082528060200260200182016040528015610d0657816020015b610cf361177b565b815260200190600190039081610ceb5790505b509050600080805b84811015610dd157610d21816001612025565b600081815260076020908152604091829020825160a0810184528154815260018201546001600160a01b039081169382019390935260028201549092169282019290925260038201546060820152600482015460ff161515608082015286519294509091869086908110610da557634e487b7160e01b600052603260045260246000fd5b6020908102919091010152610dbb600185612025565b9350508080610dc9906120a5565b915050610d0e565b5091949350505050565b6000610de660035490565b905090565b6001600160a01b038516331480610e075750610e078533610374565b610e235760405162461bcd60e51b815260040161046a90611f16565b6105c585858585856113c3565b8151835114610e925760405162461bcd60e51b815260206004820152602860248201527f455243313135353a2069647320616e6420616d6f756e7473206c656e677468206044820152670dad2e6dac2e8c6d60c31b606482015260840161046a565b6001600160a01b038416610eb85760405162461bcd60e51b815260040161046a90611f64565b3360005b8451811015610fbb576000858281518110610ee757634e487b7160e01b600052603260045260246000fd5b602002602001015190506000858381518110610f1357634e487b7160e01b600052603260045260246000fd5b602090810291909101810151600084815280835260408082206001600160a01b038e168352909352919091205490915081811015610f635760405162461bcd60e51b815260040161046a90611fa9565b6000838152602081815260408083206001600160a01b038e8116855292528083208585039055908b16825281208054849290610fa0908490612025565b9250508190555050505080610fb4906120a5565b9050610ebc565b50846001600160a01b0316866001600160a01b0316826001600160a01b03167f4a39dc06d4c0dbc64b70af90fd698a233a518aa5d07e595d983b8c0526c8f7fb878760405161100b929190611e8d565b60405180910390a46110218187878787876114ed565b505050505050565b6001600160a01b0384166110895760405162461bcd60e51b815260206004820152602160248201527f455243313135353a206d696e7420746f20746865207a65726f206164647265736044820152607360f81b606482015260840161046a565b33600061109585611658565b905060006110a285611658565b90506000868152602081815260408083206001600160a01b038b168452909152812080548792906110d4908490612025565b909155505060408051878152602081018790526001600160a01b03808a1692600092918716917fc3d58168c5ae7397731d063d5bbf3d657854427343f4c083240f7aacaa2d0f62910160405180910390a4611134836000898989896116b1565b50505050505050565b8051610baf9060029060208401906117a9565b60065434146111a15760405162461bcd60e51b815260206004820152601d60248201527f506c656173652073656e642074686520636f7272656374207072696365000000604482015260640161046a565b600081116111f15760405162461bcd60e51b815260206004820152601f60248201527f4d616b6520737572652074686520707269636520697320706f73697469766500604482015260640161046a565b6040805160a081018252838152306020808301828152338486018181526060860188815260016080880181815260008c8152600788528a812099518a55955189830180546001600160a01b03199081166001600160a01b0393841617909155945160028b0180549096169116179093559051600388015590516004909601805460ff1916961515969096179095558551928301909552815261129593928691610deb565b604080513081523360208201529081018290526001606082015282907f9339409317fd01fabff48b703019016f49159bacc801ae872d2ca637d226e4c09060800160405180910390a25050565b816001600160a01b0316836001600160a01b031614156113565760405162461bcd60e51b815260206004820152602960248201527f455243313135353a2073657474696e6720617070726f76616c20737461747573604482015268103337b91039b2b63360b91b606482015260840161046a565b6001600160a01b03838116600081815260016020908152604080832094871680845294825291829020805460ff191686151590811790915591519182527f17307eab39ab6107e8899845ad3d59bd9653f200f220920489ca2b5937696c31910160405180910390a3505050565b6001600160a01b0384166113e95760405162461bcd60e51b815260040161046a90611f64565b3360006113f585611658565b9050600061140285611658565b90506000868152602081815260408083206001600160a01b038c168452909152902054858110156114455760405162461bcd60e51b815260040161046a90611fa9565b6000878152602081815260408083206001600160a01b038d8116855292528083208985039055908a16825281208054889290611482908490612025565b909155505060408051888152602081018890526001600160a01b03808b16928c821692918816917fc3d58168c5ae7397731d063d5bbf3d657854427343f4c083240f7aacaa2d0f62910160405180910390a46114e2848a8a8a8a8a6116b1565b505050505050505050565b6001600160a01b0384163b156110215760405163bc197c8160e01b81526001600160a01b0385169063bc197c81906115319089908990889088908890600401611d89565b602060405180830381600087803b15801561154b57600080fd5b505af192505050801561157b575060408051601f3d908101601f1916820190925261157891810190611c3a565b60015b611628576115876120ec565b806308c379a014156115c1575061159c612104565b806115a757506115c3565b8060405162461bcd60e51b815260040161046a9190611ebb565b505b60405162461bcd60e51b815260206004820152603460248201527f455243313135353a207472616e7366657220746f206e6f6e2d455243313135356044820152732932b1b2b4bb32b91034b6b83632b6b2b73a32b960611b606482015260840161046a565b6001600160e01b0319811663bc197c8160e01b146111345760405162461bcd60e51b815260040161046a90611ece565b604080516001808252818301909252606091600091906020808301908036833701905050905082816000815181106116a057634e487b7160e01b600052603260045260246000fd5b602090810291909101015292915050565b6001600160a01b0384163b156110215760405163f23a6e6160e01b81526001600160a01b0385169063f23a6e61906116f59089908990889088908890600401611de7565b602060405180830381600087803b15801561170f57600080fd5b505af192505050801561173f575060408051601f3d908101601f1916820190925261173c91810190611c3a565b60015b61174b576115876120ec565b6001600160e01b0319811663f23a6e6160e01b146111345760405162461bcd60e51b815260040161046a90611ece565b6040805160a08101825260008082526020820181905291810182905260608101829052608081019190915290565b8280546117b59061203d565b90600052602060002090601f0160209004810192826117d7576000855561181d565b82601f106117f057805160ff191683800117855561181d565b8280016001018555821561181d579182015b8281111561181d578251825591602001919060010190611802565b5061182992915061182d565b5090565b5b80821115611829576000815560010161182e565b600067ffffffffffffffff83111561185c5761185c6120d6565b604051611873601f8501601f191660200182612078565b80915083815284848401111561188857600080fd5b83836020830137600060208583010152509392505050565b80356001600160a01b03811681146118b757600080fd5b919050565b600082601f8301126118cc578081fd5b813560206118d982612001565b6040516118e68282612078565b8381528281019150858301600585901b87018401881015611905578586fd5b855b8581101561192357813584529284019290840190600101611907565b5090979650505050505050565b600082601f830112611940578081fd5b6109bd83833560208501611842565b60008060408385031215611961578182fd5b61196a836118a0565b9150611978602084016118a0565b90509250929050565b600080600080600060a08688031215611998578081fd5b6119a1866118a0565b94506119af602087016118a0565b9350604086013567ffffffffffffffff808211156119cb578283fd5b6119d789838a016118bc565b945060608801359150808211156119ec578283fd5b6119f889838a016118bc565b93506080880135915080821115611a0d578283fd5b50611a1a88828901611930565b9150509295509295909350565b60008060008060808587031215611a3c578384fd5b611a45856118a0565b9350611a53602086016118a0565b925060408501359150606085013567ffffffffffffffff811115611a75578182fd5b611a8187828801611930565b91505092959194509250565b600080600080600060a08688031215611aa4578081fd5b611aad866118a0565b9450611abb602087016118a0565b93506040860135925060608601359150608086013567ffffffffffffffff811115611ae4578182fd5b611a1a88828901611930565b60008060408385031215611b02578182fd5b611b0b836118a0565b915060208301358015158114611b1f578182fd5b809150509250929050565b60008060408385031215611b3c578182fd5b611b45836118a0565b946020939093013593505050565b60008060408385031215611b65578182fd5b823567ffffffffffffffff80821115611b7c578384fd5b818501915085601f830112611b8f578384fd5b81356020611b9c82612001565b604051611ba98282612078565b8381528281019150858301600585901b870184018b1015611bc8578889fd5b8896505b84871015611bf157611bdd816118a0565b835260019690960195918301918301611bcc565b5096505086013592505080821115611c07578283fd5b50611c14858286016118bc565b9150509250929050565b600060208284031215611c2f578081fd5b81356109bd8161218e565b600060208284031215611c4b578081fd5b81516109bd8161218e565b60008060408385031215611c68578182fd5b823567ffffffffffffffff811115611c7e578283fd5b8301601f81018513611c8e578283fd5b611c9d85823560208401611842565b95602094909401359450505050565b600060208284031215611cbd578081fd5b5035919050565b6000815180845260208085019450808401835b83811015611cf357815187529582019590820190600101611cd7565b509495945050505050565b60008151808452815b81811015611d2357602081850181015186830182015201611d07565b81811115611d345782602083870101525b50601f01601f19169290920160200192915050565b805182526020808201516001600160a01b039081169184019190915260408083015190911690830152606080820151908301526080908101511515910152565b6001600160a01b0386811682528516602082015260a060408201819052600090611db590830186611cc4565b8281036060840152611dc78186611cc4565b90508281036080840152611ddb8185611cfe565b98975050505050505050565b6001600160a01b03868116825285166020820152604081018490526060810183905260a060808201819052600090611e2190830184611cfe565b979650505050505050565b6020808252825182820181905260009190848201906040850190845b81811015611e6e57611e5b838551611d49565b9284019260a09290920191600101611e48565b50909695505050505050565b6020815260006109bd6020830184611cc4565b604081526000611ea06040830185611cc4565b8281036020840152611eb28185611cc4565b95945050505050565b6020815260006109bd6020830184611cfe565b60208082526028908201527f455243313135353a204552433131353552656365697665722072656a656374656040820152676420746f6b656e7360c01b606082015260800190565b6020808252602e908201527f455243313135353a2063616c6c6572206973206e6f7420746f6b656e206f776e60408201526d195c881bdc88185c1c1c9bdd995960921b606082015260800190565b60208082526025908201527f455243313135353a207472616e7366657220746f20746865207a65726f206164604082015264647265737360d81b606082015260800190565b6020808252602a908201527f455243313135353a20696e73756666696369656e742062616c616e636520666f60408201526939103a3930b739b332b960b11b606082015260800190565b60a081016104968284611d49565b600067ffffffffffffffff82111561201b5761201b6120d6565b5060051b60200190565b60008219821115612038576120386120c0565b500190565b600181811c9082168061205157607f821691505b6020821081141561207257634e487b7160e01b600052602260045260246000fd5b50919050565b601f8201601f1916810167ffffffffffffffff8111828210171561209e5761209e6120d6565b6040525050565b60006000198214156120b9576120b96120c0565b5060010190565b634e487b7160e01b600052601160045260246000fd5b634e487b7160e01b600052604160045260246000fd5b600060033d111561210157600481823e5160e01c5b90565b600060443d10156121125790565b6040516003193d81016004833e81513d67ffffffffffffffff816024840111818411171561214257505050505090565b828501915081518181111561215a5750505050505090565b843d87010160208285010111156121745750505050505090565b61218360208286010187612078565b509095945050505050565b6001600160e01b0319811681146121a457600080fd5b5056fea2646970667358221220dab64ccca8ad375862626de5e8af1feb859b28b9958ba32793418b6deb684aa164736f6c63430008040033",
  "linkReferences": {},
  "deployedLinkReferences": {}
}